{
  "contractName": "CardFactory",
  "abi": [
    {
      "constant": true,
      "inputs": [
        {
          "name": "",
          "type": "uint256"
        }
      ],
      "name": "cards",
      "outputs": [
        {
          "name": "name",
          "type": "string"
        },
        {
          "name": "dna",
          "type": "uint256"
        }
      ],
      "payable": false,
      "stateMutability": "view",
      "type": "function"
    },
    {
      "constant": true,
      "inputs": [
        {
          "name": "",
          "type": "uint256"
        }
      ],
      "name": "cardToOwner",
      "outputs": [
        {
          "name": "",
          "type": "address"
        }
      ],
      "payable": false,
      "stateMutability": "view",
      "type": "function"
    },
    {
      "anonymous": false,
      "inputs": [
        {
          "indexed": false,
          "name": "cardId",
          "type": "uint256"
        },
        {
          "indexed": false,
          "name": "name",
          "type": "string"
        },
        {
          "indexed": false,
          "name": "dna",
          "type": "uint256"
        }
      ],
      "name": "NewCard",
      "type": "event"
    },
    {
      "constant": false,
      "inputs": [
        {
          "name": "_name",
          "type": "string"
        }
      ],
      "name": "createRandomCard",
      "outputs": [],
      "payable": false,
      "stateMutability": "nonpayable",
      "type": "function"
    }
  ],
  "bytecode": "0x60806040526010600055600054600a0a60015534801561001e57600080fd5b5061070c8061002e6000396000f3fe608060405234801561001057600080fd5b50600436106100415760003560e01c80634575981e146100465780638dc1076814610101578063ffb976ec146101af575b600080fd5b6100ff6004803603602081101561005c57600080fd5b810190808035906020019064010000000081111561007957600080fd5b82018360208201111561008b57600080fd5b803590602001918460018302840111640100000000831117156100ad57600080fd5b91908080601f016020809104026020016040519081016040528093929190818152602001838380828437600081840152601f19601f82011690508083019250505050505050919291929050505061021d565b005b61012d6004803603602081101561011757600080fd5b81019080803590602001909291905050506102ed565b6040518080602001838152602001828103825284818151815260200191508051906020019080838360005b83811015610173578082015181840152602081019050610158565b50505050905090810190601f1680156101a05780820380516001836020036101000a031916815260200191505b50935050505060405180910390f35b6101db600480360360208110156101c557600080fd5b81019080803590602001909291905050506103b6565b604051808273ffffffffffffffffffffffffffffffffffffffff1673ffffffffffffffffffffffffffffffffffffffff16815260200191505060405180910390f35b6000600460003373ffffffffffffffffffffffffffffffffffffffff1673ffffffffffffffffffffffffffffffffffffffff16815260200190815260200160002054146102d2576040517f08c379a000000000000000000000000000000000000000000000000000000000815260040180806020018281038252601a8152602001807f4f776e6572206361726420636f756e74206e6f74207a65726f2e00000000000081525060200191505060405180910390fd5b60006102dd826103e9565b90506102e98282610477565b5050565b600281815481106102fa57fe5b9060005260206000209060020201600091509050806000018054600181600116156101000203166002900480601f0160208091040260200160405190810160405280929190818152602001828054600181600116156101000203166002900480156103a65780601f1061037b576101008083540402835291602001916103a6565b820191906000526020600020905b81548152906001019060200180831161038957829003601f168201915b5050505050908060010154905082565b60036020528060005260406000206000915054906101000a900473ffffffffffffffffffffffffffffffffffffffff1681565b600080826040516020018082805190602001908083835b602083106104235780518252602082019150602081019050602083039250610400565b6001836020036101000a0380198251168184511680821785525050505050509050019150506040516020818303038152906040528051906020012060001c9050600154818161046e57fe5b06915050919050565b6000600160026040518060400160405280868152602001858152509080600181540180825580915050906001820390600052602060002090600202016000909192909190915060008201518160000190805190602001906104d992919061063b565b50602082015181600101555050039050336003600083815260200190815260200160002060006101000a81548173ffffffffffffffffffffffffffffffffffffffff021916908373ffffffffffffffffffffffffffffffffffffffff160217905550600460003373ffffffffffffffffffffffffffffffffffffffff1673ffffffffffffffffffffffffffffffffffffffff168152602001908152602001600020600081548092919060010191905055507fc26d056b0cf208db2b1b44041aed71d24e75bd1b4ca5994bc6d06e9a72b6e5808184846040518084815260200180602001838152602001828103825284818151815260200191508051906020019080838360005b838110156105fa5780820151818401526020810190506105df565b50505050905090810190601f1680156106275780820380516001836020036101000a031916815260200191505b5094505050505060405180910390a1505050565b828054600181600116156101000203166002900490600052602060002090601f016020900481019282601f1061067c57805160ff19168380011785556106aa565b828001600101855582156106aa579182015b828111156106a957825182559160200191906001019061068e565b5b5090506106b791906106bb565b5090565b6106dd91905b808211156106d95760008160009055506001016106c1565b5090565b9056fea165627a7a72305820e228044cf2219e512ad05ca03513ed24423f1fb7de4b993a5a2708b61c36818c0029",
  "source": "pragma solidity ^0.5.8;\n\ncontract CardFactory {\n\n    event NewCard(uint cardId, string name, uint dna);\n\n    uint dnaDigits = 16;\n    uint dnaModulus = 10 ** dnaDigits;\n\n    struct Card {\n        string name;\n        uint dna;\n    }\n\n    Card[] public cards;\n\n    mapping (uint => address) public cardToOwner;\n    mapping (address => uint) ownerCardCount;\n\n    // edit function definition below\n    function _createCard(string memory _name, uint _dna) private {\n        uint id = cards.push(Card(_name, _dna)) - 1;\n        cardToOwner[id] = msg.sender;\n        ownerCardCount[msg.sender]++;\n        emit NewCard(id, _name, _dna);\n    }\n\n    function _generateRandomDna(string memory _str) private view returns (uint) {\n        uint rand = uint(keccak256(abi.encodePacked(_str)));\n        return rand % dnaModulus;\n    }\n\n    function createRandomCard(string memory _name) public {\n        require(ownerCardCount[msg.sender] == 0, 'Owner card count not zero.');\n        uint randDna = _generateRandomDna(_name);\n        _createCard(_name, randDna);\n    }\n\n}",
  "sourcePath": "/home/highwalker/Documents/code/tcgContracts/contracts/CardFactory.sol",
  "compiler": {
    "name": "solc",
    "version": "0.5.8+commit.23d335f2.Emscripten.clang"
  },
  "schemaVersion": "3.0.10",
  "updatedAt": "2019-06-11T21:51:17.298Z",
  "devdoc": {
    "methods": {}
  },
  "userdoc": {
    "methods": {}
  }
}